{
  "_format": "hh-sol-artifact-1",
  "contractName": "Storage",
  "sourceName": "contracts/Storage.sol",
  "abi": [
    {
      "inputs": [],
      "name": "num",
      "outputs": [
        {
          "internalType": "uint256",
          "name": "",
          "type": "uint256"
        }
      ],
      "stateMutability": "view",
      "type": "function"
    },
    {
      "inputs": [
        {
          "internalType": "uint256",
          "name": "number",
          "type": "uint256"
        }
      ],
      "name": "store",
      "outputs": [],
      "stateMutability": "nonpayable",
      "type": "function"
    }
  ],
  "bytecode": "0x608060405234801561001057600080fd5b5060ac8061001f6000396000f3fe6080604052348015600f57600080fd5b506004361060325760003560e01c80634e70b1dc1460375780636057361d14604f575b600080fd5b603d606b565b60408051918252519081900360200190f35b606960048036036020811015606357600080fd5b50356071565b005b60005481565b60005556fea2646970667358221220b92e2c12009067563970f2935b3a53628c8126c25b3515506781165d9a16f68564736f6c63430007000033",
  "linkReferences": {},
  "deployedLinkReferences": {}
}