{
  "contracts/Storage.sol": {
    "Storage": {
      "abi": [
        {
          "inputs": [
            {
              "internalType": "uint256",
              "name": "num",
              "type": "uint256"
            }
          ],
          "stateMutability": "payable",
          "type": "constructor"
        },
        {
          "inputs": [],
          "name": "number",
          "outputs": [
            {
              "internalType": "uint256",
              "name": "",
              "type": "uint256"
            }
          ],
          "stateMutability": "view",
          "type": "function"
        }
      ],
      "evm": {
        "bytecode": {
          "linkReferences": {},
          "object": "60806040526040516100b93803806100b983398181016040526020811015602557600080fd5b50516000556081806100386000396000f3fe6080604052348015600f57600080fd5b506004361060285760003560e01c80638381f58a14602d575b600080fd5b60336045565b60408051918252519081900360200190f35b6000548156fea26469706673582212207f202a1370b9f637a2b1f13e91ec8f9708a3893dfd1f4fcc1817b70036fe90da64736f6c63430007000033",
          "opcodes": "PUSH1 0x80 PUSH1 0x40 MSTORE PUSH1 0x40 MLOAD PUSH2 0xB9 CODESIZE SUB DUP1 PUSH2 0xB9 DUP4 CODECOPY DUP2 DUP2 ADD PUSH1 0x40 MSTORE PUSH1 0x20 DUP2 LT ISZERO PUSH1 0x25 JUMPI PUSH1 0x0 DUP1 REVERT JUMPDEST POP MLOAD PUSH1 0x0 SSTORE PUSH1 0x81 DUP1 PUSH2 0x38 PUSH1 0x0 CODECOPY PUSH1 0x0 RETURN INVALID PUSH1 0x80 PUSH1 0x40 MSTORE CALLVALUE DUP1 ISZERO PUSH1 0xF JUMPI PUSH1 0x0 DUP1 REVERT JUMPDEST POP PUSH1 0x4 CALLDATASIZE LT PUSH1 0x28 JUMPI PUSH1 0x0 CALLDATALOAD PUSH1 0xE0 SHR DUP1 PUSH4 0x8381F58A EQ PUSH1 0x2D JUMPI JUMPDEST PUSH1 0x0 DUP1 REVERT JUMPDEST PUSH1 0x33 PUSH1 0x45 JUMP JUMPDEST PUSH1 0x40 DUP1 MLOAD SWAP2 DUP3 MSTORE MLOAD SWAP1 DUP2 SWAP1 SUB PUSH1 0x20 ADD SWAP1 RETURN JUMPDEST PUSH1 0x0 SLOAD DUP2 JUMP INVALID LOG2 PUSH5 0x6970667358 0x22 SLT KECCAK256 PUSH32 0x202A1370B9F637A2B1F13E91EC8F9708A3893DFD1F4FCC1817B70036FE90DA64 PUSH20 0x6F6C634300070000330000000000000000000000 "
        },
        "methodIdentifiers": {
          "number()": "8381f58a"
        }
      }
    }
  }
}